S00D000045787074322E7372656344
S11300000C942A000C943C000C943C000C943C008E
S11300100C943C000C943C000C943C000C943C006C
S11300200C943C000C943C000C943C000C943C005C
S11300300C943C000C943C000C943C000C943C004C
S11300400C943C000C943C000C943C000C943C003C
S11300500C943C0011241FBECFE5D4E0DEBFCDBF1D
S113006020E0A0E6B0E001C01D92A237B207E1F79C
S11300700E94B7020C9440030C94000089EF90E0B6
S11300800197F1F700C0000085B38E7F85BB85B36F
S11300908D7F85BB80E385BB95B3946095BBE1EE12
S11300A0F4E03197F1F700C0000095B39B7F95BB56
S11300B0E9EFF0E03197F1F700C0000095B39E7FBF
S11300C095BB95B39D7F95BB85BB95B3946095BB5C
S11300D0E1EEF4E03197F1F700C0000095B39B7FA7
S11300E095BBE9EFF0E03197F1F700C0000095B35C
S11300F09E7F95BB95B39D7F95BB85BB85B384607F
S113010085BB81EE94E00197F1F700C0000085B350
S11301108B7F85BBE9EFF0E03197F1F700C0000079
S113012085B38E7F85BB85B38D7F85BB80E285BB20
S113013085B3846085BB81EE94E00197F1F700C03C
S1130140000085B38B7F85BB0895382F307F25B39E
S11301502F7025BB95B3932B95BB95B39E7F95BB11
S113016095B39D7F95BB95B3946095BBE1EEF4E0A8
S11301703197F1F700C0000095B39B7F95BB829542
S1130180807F95B39F7095BB95B3892B85BB85B351
S11301908E7F85BB85B38D7F85BB85B3846085BB2E
S11301A081EE94E00197F1F700C0000085B38B7FE6
S11301B085BB089589EF90E00197F1F700C0000036
S11301C088E20E94A50081E00E94A50086E00E94CA
S11301D0A5008EE00E94A50080E80E94A500089575
S11301E0382F307F25B32F7025BB95B3932B95BB48
S11301F095B3916095BB95B39D7F95BB95B3946082
S113020095BBE1EEF4E03197F1F700C0000095B33F
S11302109B7F95BB8295807F95B39F7095BB95B36B
S1130220892B85BB85B3816085BB85B38D7F85BBF9
S113023085B3846085BB81EE94E00197F1F700C03B
S1130240000085B38B7F85BB089580E80E94A500DC
S11302500895823071F018F4813031F008958330BC
S113026069F0843081F008958FE7860F0E94A5001D
S113027008958FEB860F0E94A500089583E9860FE9
S11302800E94A500089583ED860F0E94A50008959D
S11302900F931F93CF93DF938A01E901882311F011
S11302A0611103C00E94250102C00E942901C530CA
S11302B0D105D1F49801329522952F7023273F70F0
S11302C02327A7E4B3E00E9431039695879596957A
S11302D0879596958795C096909364008093630064
S11302E00E94F00081E001C080E0C430D10511F02B
S11302F08130C1F598013695279536952795369521
S11303002795A5ECB0E20E943103AC0152954295C9
S11303104F7045275F7045275093660040936500F2
S11303209A01ADECBCEC0E943103969587959695A5
S11303308795969587959C01220F331F880F991FE7
S1130340880F991F880F991F820F931F9A01281BEA
S1130350390BC901C09690937100809370000E947C
S1130360F00081E0C330D10511F0813091F598019E
S11303703695279536952795ABE7B4E10E9431036E
S1130380AC015695479550936600409365009A01D9
S1130390ADECBCEC0E9431039695879596958795B4
S11303A0969587959C01220F331F880F991F880FFC
S11303B0991F880F991F820F931F9A01281B390BCD
S11303C0C901C09690936D0080936C000E94F00068
S11303D081E0C230D10511F0813081F59801ADEC96
S11303E0BCEC0E943103AC01569547955695479550
S11303F05695479550936600409365009A010E9474
S113040031039695879596958795969587959C0142
S1130410220F331F880F991F880F991F880F991F68
S1130420820F931F9A01281B390BC901C096909320
S11304306B0080936A000E94F00081E0C130D10516
S113044011F0813009F59801ADECBCEC0E94310348
S11304509695879596958795969587959C01220FF5
S1130460331F880F991F880F991F880F991F820FB8
S1130470931F9801281B390BC901C09690936F00F4
S113048080936E000E94F00026971CF085E40E9481
S1130490F000DF91CF911F910F91089587B38F6082
S11304A087BB88B3807F88BB81B3806381BB82B301
S11304B0806382BB08958F7098B3907F892B88BB2B
S11304C0089586E00E945B02089585E00E945B0225
S11304D008958AE00E945B02089584E00E945B0212
S11304E0089582E00E945B02089516B880E287B9FD
S11304F080E888B986E886B9089584B3876F84BB99
S113050085B3807885BB08951ABA1BBA08950E94F2
S11305107D020E9484020E944E0208951EBC8FEF49
S11305208DBD91E09CBD1BBC8ABD19BC88BD17BCA8
S113053086BD81EA8FBD8DE08EBD0895F8940E943A
S113054087020E94750278940E948E0208958ABDE3
S113055068BD08958770806287B986B1806486B962
S1130560349BFECF85B196B1906196B908950E94EF
S11305709E020E943E000E94DA0083E00E94AA02CA
S11305808093620084E00E94AA028093610085E067
S11305900E94AA02809360004091620050E023E030
S11305A030E061E081E00E9448014091610050E048
S11305B023E030E065E081E00E9448014091600062
S11305C050E023E030E069E081E00E944801C091FE
S11305D06000D0E080916200C81BD109CE01880F71
S11305E0991F880F991F8C0F9D1F8A569F4F682F44
S11305F00E94A70280916200893038F090916000D7
S1130600993018F00E94610209C0883019F40E94E0
S11306106D0204C0893028F00E94650280E090E0F9
S113062016C080916000883019F40E947102F6CFE0
S1130630893018F00E946902F1CF0E946102EECF66
S1130640E9EFF0E03197F1F700C00000019642E3D2
S11306504C9F90014D9F300D11248217930784F312
S11306608CCFA29FB001B39FC001A39F700D811DC9
S11306701124911DB29F700D811D1124911D0895A7
S1070680F894FFCF18
S9030000FC
